{
  "contractName": "Test",
  "abi": [
    {
      "inputs": [],
      "name": "INITIAL_SUPPLY",
      "outputs": [
        {
          "internalType": "uint256",
          "name": "",
          "type": "uint256"
        }
      ],
      "stateMutability": "view",
      "type": "function",
      "constant": true
    },
    {
      "inputs": [],
      "name": "decimals",
      "outputs": [
        {
          "internalType": "uint256",
          "name": "",
          "type": "uint256"
        }
      ],
      "stateMutability": "view",
      "type": "function",
      "constant": true
    },
    {
      "inputs": [],
      "name": "name",
      "outputs": [
        {
          "internalType": "string",
          "name": "",
          "type": "string"
        }
      ],
      "stateMutability": "view",
      "type": "function",
      "constant": true
    },
    {
      "inputs": [],
      "name": "symbol",
      "outputs": [
        {
          "internalType": "string",
          "name": "",
          "type": "string"
        }
      ],
      "stateMutability": "view",
      "type": "function",
      "constant": true
    }
  ],
  "bytecode": "0x60806040526040518060400160405280600a81526020017f5465737420546f6b656e000000000000000000000000000000000000000000008152506000908051906020019061004f9291906100d2565b506040518060400160405280600481526020017f54455354000000000000000000000000000000000000000000000000000000008152506001908051906020019061009b9291906100d2565b506012600255600254600a6100b091906102e1565b6127106100bd919061032c565b6003553480156100cc57600080fd5b506103e7565b8280546100de906103b5565b90600052602060002090601f0160209004810192826101005760008555610147565b82601f1061011957805160ff1916838001178555610147565b82800160010185558215610147579182015b8281111561014657825182559160200191906001019061012b565b5b5090506101549190610158565b5090565b5b80821115610171576000816000905550600101610159565b5090565b7f4e487b7100000000000000000000000000000000000000000000000000000000600052601160045260246000fd5b60008160011c9050919050565b6000808291508390505b60018511156101fb578086048111156101d7576101d6610175565b5b60018516156101e65780820291505b80810290506101f4856101a4565b94506101bb565b94509492505050565b60008261021457600190506102d0565b8161022257600090506102d0565b8160018114610238576002811461024257610271565b60019150506102d0565b60ff84111561025457610253610175565b5b8360020a91508482111561026b5761026a610175565b5b506102d0565b5060208310610133831016604e8410600b84101617156102a65782820a9050838111156102a1576102a0610175565b5b6102d0565b6102b384848460016101b1565b925090508184048111156102ca576102c9610175565b5b81810290505b9392505050565b6000819050919050565b60006102ec826102d7565b91506102f7836102d7565b92506103247fffffffffffffffffffffffffffffffffffffffffffffffffffffffffffffffff8484610204565b905092915050565b6000610337826102d7565b9150610342836102d7565b9250817fffffffffffffffffffffffffffffffffffffffffffffffffffffffffffffffff048311821515161561037b5761037a610175565b5b828202905092915050565b7f4e487b7100000000000000000000000000000000000000000000000000000000600052602260045260246000fd5b600060028204905060018216806103cd57607f821691505b602082108114156103e1576103e0610386565b5b50919050565b610377806103f66000396000f3fe608060405234801561001057600080fd5b506004361061004c5760003560e01c806306fdde03146100515780632ff2e9dc1461006f578063313ce5671461008d57806395d89b41146100ab575b600080fd5b6100596100c9565b604051610066919061028a565b60405180910390f35b610077610157565b60405161008491906102c5565b60405180910390f35b61009561015d565b6040516100a291906102c5565b60405180910390f35b6100b3610163565b6040516100c0919061028a565b60405180910390f35b600080546100d69061030f565b80601f01602080910402602001604051908101604052809291908181526020018280546101029061030f565b801561014f5780601f106101245761010080835404028352916020019161014f565b820191906000526020600020905b81548152906001019060200180831161013257829003601f168201915b505050505081565b60035481565b60025481565b600180546101709061030f565b80601f016020809104026020016040519081016040528092919081815260200182805461019c9061030f565b80156101e95780601f106101be576101008083540402835291602001916101e9565b820191906000526020600020905b8154815290600101906020018083116101cc57829003601f168201915b505050505081565b600081519050919050565b600082825260208201905092915050565b60005b8381101561022b578082015181840152602081019050610210565b8381111561023a576000848401525b50505050565b6000601f19601f8301169050919050565b600061025c826101f1565b61026681856101fc565b935061027681856020860161020d565b61027f81610240565b840191505092915050565b600060208201905081810360008301526102a48184610251565b905092915050565b6000819050919050565b6102bf816102ac565b82525050565b60006020820190506102da60008301846102b6565b92915050565b7f4e487b7100000000000000000000000000000000000000000000000000000000600052602260045260246000fd5b6000600282049050600182168061032757607f821691505b6020821081141561033b5761033a6102e0565b5b5091905056fea26469706673582212201102596dcd8c598bb4abeee6ef9358f6f5ba83a4ba9424d4a7e0b116bba5c38f64736f6c634300080c0033",
  "immutableReferences": {},
  "source": "// SPDX-License-Identifier: GPL-3.0\npragma solidity ^0.8.7; //  \n\ncontract Test {\n    string public name = \"Test Token\"; // \n    string public symbol = \"TEST\"; // \n    uint256 public decimals = 18; // 18  \n    uint256 public INITIAL_SUPPLY = 10000 * 10**decimals; //  1000.000000000000000000\n    string constant test = \"You can not see this message\";\n}\n",
  "sourcePath": "C:\\Users\\chaejieun\\git\\erc721\\contracts\\Test.sol",
  "compiler": {
    "name": "solc",
    "version": "0.8.12+commit.f00d7308.Emscripten.clang"
  },
  "schemaVersion": "3.4.5",
  "updatedAt": "2022-03-04T02:55:18.070Z",
  "networkType": "ethereum",
  "devdoc": {
    "kind": "dev",
    "methods": {},
    "version": 1
  },
  "userdoc": {
    "kind": "user",
    "methods": {},
    "version": 1
  }
}